:020000040800F2
:10000000B80D002001010008F50E0008010C0008E1
:10001000F10E000805090008491E00080000000054
:1000200000000000000000000000000009160008A9
:1000300095090008000000008D15000885190008CA
:100040001701000817010008170100081701000830
:100050001701000817010008170100081701000820
:100060001701000817010008170100081701000810
:100070001701000817010008170100081701000800
:1000800017010008170100081701000817010008F0
:1000900017010008170100081701000817010008E0
:1000A00017010008170100081701000817010008D0
:1000B000BD19000817010008391A000817010008C7
:1000C00017010008170100081701000817010008B0
:1000D0001701000817010008111C0008B91C0008CE
:1000E000170100081701000817010008DFF80CD0FD
:1000F00000F062FA0048004779210008B80D00209E
:1001000005480047FEE7FEE7FEE7FEE7FEE7FEE7FD
:10011000FEE7FEE7FEE7FEE7ED000008F0B480EA48
:100120000102D40F4200B2EB410F02D20246084650
:1001300011464A0042D0C30DDDB2C1F3C752AD1A19
:10014000202D35DAC1F3160141F4000204B1524208
:10015000C5F1200602FA06F12A411044B3EBD05F44
:1001600023D0C4B1012DA0EBC35009DCF0BC4FF08B
:10017000004202EAC352DBB200F5000000F091B980
:10018000400000F1807000EBC350A0F1807040EAA5
:10019000D170490009E0490841EAC071A0EBC350A1
:1001A00000F50000400800EBC350F0BC00F070B94F
:1001B0006142012202EB4101001BF6E7F0BC7047EF
:1001C00081F00041AAE780F00040A7E780EA010241
:1001D00010B502F00043400022D04A001FD0010EAB
:1001E00001EB1261C0F35600C2F3560240F4000066
:1001F00042F40002A0FB022000047F39140400D066
:10020000401C50EA124001D44000491EC2B20C0604
:1002100004EBD010401C4008802A02D003E00020EC
:1002200010BD20F00100002900DA0020184310BDA5
:1002300030B480EA010202F0004530F0004221F0C3
:10024000004013D090B1C30DD40DC2F31601C0F31A
:100250001600E41A41F4000140F400027D3491429A
:1002600001D3641C00E04900002C02DA30BC0020FD
:1002700070474FF400000023914201D3891A0343D1
:1002800040084FEA4101F7D151B1914202D14FF0FC
:10029000004105E002D24FF0010101E06FF00101E1
:1002A00003EBC450284430BC00F0F2B82DE9F04D07
:1002B00081EA030404F0004B21F0004514464FF09E
:1002C000000A23F0004150EA050220D054EA01025E
:1002D0001DD0C5F30A570246C5F31303C1F313003B
:1002E000C1F30A5640F4801543F48013A7EB0608C7
:1002F000101BD64608F2FD3873EB050002D308F157
:10030000010801E092185B41B8F1000F03DA002008
:100310000146BDE8F08D00204FF48011064684466A
:100320000EE0171B73EB050705D3121B63EB0503E8
:1003300006434CEA010C49084FEA300092185B4131
:1003400050EA0107EDD152EA030012D082EA04001C
:1003500083EA0501084305D0101BAB4106D20122F8
:10036000002306E000224FF0004302E06FF001029C
:1003700053101AEB06004CEB085110EB0A0041EB4E
:100380000B01BDE8F04D00F0BAB8962300221146EB
:1003900000F087B820F00040C10DC0F3160040F413
:1003A00000007F2901DA00207047962903DCC1F1A3
:1003B0009601C840704796398840704700F0004267
:1003C00030F000400AD0C10D01F56071C0F3160095
:1003D00042EA0151C208400711437047002001461C
:1003E000704701F0004330B421F0004150EA0102AF
:1003F00006D00A0DA2F56072C1F31301002A02DCD7
:1004000030BC00207047440F44EAC104C100E0182A
:1004100030BC00EBC25000F03BB80000002801DB0C
:10042000C0F10040002901DBC1F100418142704769
:10043000002801DBC0F10040002901DBC1F10041CF
:100440008842704730B50B46014600202022012427
:1004500009E021FA02F59D4205D303FA02F5491B92
:1004600004FA02F52844151EA2F10102F1DC30BDA8
:10047000202A04DB203A21FA02F00021704721FAF9
:1004800002F3D040C2F12002914008431946704760
:100490000029A8BF7047401C490008BF20F0010098
:1004A000704710B4B0FA80FC00FA0CF050EA010476
:1004B00004BF10BC704749B1CCF1200421FA04F408
:1004C00011FA0CF118BF012121430843A3EB0C01E1
:1004D000CB1D4FEA00614FEA102042BF002010BC44
:1004E000704700EBC35010440029A4BF10BC7047F4
:1004F000401C490008BF20F0010010BC704710B537
:10050000141E73F1000408DA401C41F10001921836
:100510005B411A4301D120F0010010BD2DE9F04DDF
:1005200092469B4611B1B1FA81F202E0B0FA80F234
:100530002032904600F052F804460F4640EA0A0086
:1005400041EA0B0153465A46084313D0114653EA79
:10055000010019D0C8F140025046FFF789FF054657
:100560000E4650465946424600F038F8084305D03A
:10057000012004E020463946BDE8F08D0020054307
:1005800046EAE0762C4337430A986305E40AA0EB79
:1005900008000022FD0A44EA47540A3002D5002030
:1005A0000146E9E7010510196941DDE9084500192F
:1005B0006941BDE8F04DA2E7064C074D06E0E06852
:1005C00040F0010394E8070098471034AC42F6D39A
:1005D000FFF790FD7443000894430008202A04DBD1
:1005E000203A00FA02F1002070479140C2F1200346
:1005F00020FA03F3194390407047000000B591B012
:100600000121480200F0F0FF0121042000F0ECFF7E
:100610000121084600F0C8FF0121042000F0E4FF9A
:100620004FF4004000F0B4FF00208DF8430001209B
:10063000ADF8400003208DF8420010A9334800F0C7
:10064000D1F948208DF843000220ADF84000032086
:100650008DF8420010A92D4800F0C4F905230122AD
:1006600000212B4800F0ACF800200B900E904FF4C6
:1006700060200D9001208DF831008DF830008DF84C
:100680003C000BA9224800F073F821484C30009040
:1006900080150690002004901E4801904FF4806061
:1006A00007908020059000200290012003902020D8
:1006B000089000200A904FF480500990694616482F
:1006C00000F04AF90121144800F03AF901211048DC
:1006D00000F02FF801210E4800F020F80C4800F03F
:1006E000CBF800BF0A4800F039F80128FAD00848D2
:1006F00000F0D2F800BF064800F026F80128FAD032
:100700000121034800F0BDF811B000BD0008014010
:1007100000240140440000200800024021B182680A
:1007200042F00102826003E0826822F001028260EE
:10073000704721B1826842F48072826003E082686F
:1007400022F4807282607047014600208A6802F0BD
:1007500004020AB1012000E0002070470146002099
:100760008A6802F008020AB1012000E00020704708
:1007700030B502460020002350680F4C20400D7910
:100780000C6844EA05242043506090680B4C2040DC
:10079000D1E902542C434D7944EA4504204390604A
:1007A000D06A20F470000C7C641EE4B2234340EA5B
:1007B0000350D06230BD0000FFFEF0FFFDF7F1FFF7
:1007C000F0B504460D4600200021092D11DDE0683A
:1007D000A5F10A0606EB4607072606FA07F1884345
:1007E000A5F10A0606EB460603FA06F10843E060A7
:1007F0000CE0206905EB4507072606FA07F1884358
:1008000005EB450603FA06F108432061072A0FDAD3
:10081000606B561E06EB86071F2606FA07F1884313
:10082000561E06EB860605FA06F10843606322E0D1
:100830000D2A0FDA206BD61F06EB86071F2606FA55
:1008400007F18843D61F06EB860605FA06F1084332
:10085000206310E0E06AA2F10D0606EB86071F2672
:1008600006FA07F18843A2F10D0606EB860605FAA3
:1008700006F10843E062F0BD816841F00801816043
:10088000704721B1826842F4A002826003E082686E
:1008900022F4A00282607047816841F00401816007
:1008A000704700001548C08B012807D11449C87053
:1008B000087048700020C87288701EE00F4890F8D9
:1008C000220030B90D48008C012816D10C49C8709F
:1008D00013E00A48008C01280FD1084890F8220044
:1008E00000280ADD00200649C87001200870002099
:1008F00048700120C87200208870704754000020A2
:100900009000002000BFFEE710B50021014801F073
:10091000AAF810BD0008004010B50748C07A10B111
:10092000064800F05FFF0448407810B100F0ACFAD0
:1009300001E000F09FFA10BD900000200000344359
:1009400021B1026842F00102026004E002684FF641
:10095000FE731A400260704710B50022026847F625
:10096000F0739A430C6A8B6823430C6923434C69E8
:1009700023438C692343CC6923434C6A23438C6A09
:1009800023431A430260CB6843600B6883604B6863
:10099000C36010BD704700002DE9F04105460F49C6
:1009A0002846FFF73BFD01D8002413E00C492846F8
:1009B000FFF73EFD01D864240CE008492846FFF704
:1009C000FFFB07464FF08141FFF700FC0646FFF7AB
:1009D000E1FCC4B22046BDE8F08100000000A04068
:1009E0000000F0412DE9F0410246002500260020DC
:1009F00000230024002791F803C00CF00F0591F8A4
:100A000003C00CF0100CBCF1000F03D091F802C031
:100A10004CEA050591F800C0BCF1000F31D0146814
:100A200000202BE04FF0010C0CFA00F3B1F800C0ED
:100A30000CEA03069E4220D183004FF00F0C0CFA03
:100A400003F7BC4305FA03FC4CEA040491F803C025
:100A5000BCF1280F06D14FF0010C0CFA00FCC2F8D3
:100A600014C00AE091F803C0BCF1480F05D14FF063
:100A7000010C0CFA00FCC2F810C0401C0828D1D3AD
:100A80001460B1F800C0BCF1FF0F34DD54680020E1
:100A90002EE000F1080C4FF0010808FA0CF3B1F851
:100AA00000C00CEA03069E4221D183004FF00F0CD8
:100AB0000CFA03F7BC4305FA03FC4CEA040491F872
:100AC00003C0BCF1280F05D100F1080C08FA0CF89E
:100AD000C2F8148091F803C0BCF1480F07D100F1AF
:100AE000080C4FF0010808FA0CF8C2F81080401CFE
:100AF0000828CED35460BDE8F0810000F0B50A4666
:100B0000002300240021002500F00046B6F1004F2C
:100B100002D11D4EF16901E01B4E7168C0F303451F
:100B200083B200F44016B6F5401F08D121F0706181
:100B3000154E766826F07066134F7E6012E000F462
:100B40008016B6F5801F06D1032606FA05F4A143E8
:100B500041F0706106E0460D360103FA06F6B14336
:100B600041F0706122B1460D360103FA06F63143B9
:100B700000F00046B6F1004F02D1034EF16101E0F2
:100B8000014E7160F0BD00000000014002460020EF
:100B900093680B400BB1012000E0002070474161D9
:100BA0007047016170470AB1016100E0416170471F
:100BB00010B500BF094800884FF47A7100FB01F4BA
:100BC000074800F05CFF04440020054924310880F8
:100BD000322001F083FA204610BD000038000020CA
:100BE0000008004010B501210448FFF7CFFF08B905
:100BF000012000E000200446204610BD000801400E
:100C000000BFFEE7032000BF011EA0F10102D0B229
:100C1000FAD1704710B502210448FFF7B7FF08B9B1
:100C2000012000E000200446204610BD00080140DD
:100C300010B54FF480517F48FFF7A8FFB8B10020EE
:100C40007D4908707D4908807D48007828B10020E2
:100C50007B49087001207B4908707B48007870B39D
:100C60000020794908700B207649087027E0724807
:100C70000078A0B971480088401C70490880084677
:100C800000880A281BDD0020088001206C490870BC
:100C900000206D4908700120674908700FE067481F
:100CA0000088401C6549088008460088B0F57A7FB6
:100CB00005DD0020624908700120634908704FF487
:100CC00000515C48FFF762FFB8B100205F4908702F
:100CD0005F4908805F48007828B100205D490870AE
:100CE0000220584908705C48007870B300205A49C7
:100CF000087002205349087027E054480078A0B9D2
:100D000053480088401C52490880084600880A2839
:100D10001BDD0020088001204E49087000204E494C
:100D200008700120494908700FE049480088401CBC
:100D30004749088008460088B0F57A7F05DD002025
:100D4000444908700120444908704FF480413948F3
:100D5000FFF71CFF28B10020404908704049088077
:100D60002DE03E48007888B93D480088401C3C4949
:100D70000880084600880A2821DD0020088003201A
:100D80003049087001203549087018E0344800885F
:100D9000B0F5FA7F05DA32480088401C30490880F7
:100DA0000DE030480088401C2E4908800846008825
:100DB000052804DD002008800320224908704FF434
:100DC00000411C48FFF7E2FE28B1002026490870C8
:100DD000264908802DE02448007888B923480088F7
:100DE000401C22490880084600880A2821DD00208E
:100DF000088004201349087001201B49087018E07E
:100E00001A480088B0F5FA7F05DA18480088401CB7
:100E1000164908800DE016480088401C14490880D7
:100E200008460088052804DD0020088004200549C4
:100E3000087010BD000C0140210000201E000020A1
:100E40002000002036000020220000202700002083
:100E50002400002026000020280000202F00002071
:100E60002A0000202C000020350000203000002047
:100E70003200002010B5002201210248FFF793FE46
:100E800010BD0000000C014010B5012211460248BF
:100E9000FFF789FE10BD0000000C014008B50121DC
:100EA000082000F0A1FB10208DF803000220ADF80F
:100EB000000003208DF8020069460448FFF792FD08
:100EC00002210248FFF76BFE08BD0000000C014044
:100ED00008B50648C07A38B101201023112200213C
:100EE0000090602000F0DCF908BD000090000020B8
:100EF00000BFFEE77047000070B5002100230F22FD
:100F0000C47804B3154C246804F4E064C4F5E064C8
:100F1000210AC1F10403CA40447804FA03F1847839
:100F20001440214309010E4C0678A155047804F0C1
:100F30001F050124AC4005786D11AD0005F1E025D9
:100F4000C5F8004109E0047804F01F050124AC4015
:100F5000044D0678761145F8264070BD0CED00E092
:100F600000E400E080E100E070B500240CE0002522
:100F700006E00020074901EBC5010855681CC5B211
:100F8000802DF6DB601CC4B2082CF0DB00F08EF87C
:100F900070BD00009C000020F0B514460B46CF1732
:100FA00001EB5777C7F3C702CF1701EB5777FF1055
:100FB000A1EBC707FEB20123B340DDB24CB1134B26
:100FC00003EBC0039B5C2B43104F07EBC007BB54E4
:100FD0001AE00E4B03EBC0039B5CDB430B4F07EBAC
:100FE000C007BB54094B03EBC0039B5C2B43074F6B
:100FF00007EBC007BB54054B03EBC0039B5CDB4313
:10100000024F07EBC007BB54F0BD00009C0000205E
:1010100010B580210A48FFF7C4FD40210848FFF7BA
:10102000C0FDFFF7EFFD80210548FFF7B8FDFFF792
:10103000E9FD40210248FFF7B2FDFFF7E3FD10BDD7
:10104000000C014010B580210648FFF7A8FD4021A3
:101050000448FFF7A6FDFFF7D5FD80210148FFF703
:10106000A0FD10BD000C014010B580210848FFF71D
:1010700098FDFFF7C7FD40210548FFF792FDFFF7F8
:10108000C1FD40210248FFF78AFDFFF7BBFD10BDFF
:10109000000C014010B50246012000E050430B1E39
:1010A000A1F10104E1B2F9D110BD000070B5002436
:1010B0002BE004F1B001C8B2002100F0BDF900211D
:1010C000084600F0B9F90021102000F0B5F9FFF74B
:1010D0009FFF782000F01EF8FFF7C6FF402000F0C9
:1010E00019F8FFF7C1FF002509E0094901EBC50127
:1010F000085D00F00FF8FFF7B7FF681CC5B2802D40
:10110000F3DBFFF79FFF601CC4B2082CD1DB70BD7E
:101110009C00002070B5044600251BE004F0800010
:1011200020B180210D48FFF73CFD03E080210B48F2
:10113000FFF735FDFFF766FD40210848FFF731FD59
:10114000FFF760FD40210548FFF729FD6006040E0A
:10115000681CC5B2082DE1DB70BD0000000C014029
:101160002DE9FE4F0746884692461C460197CDF86A
:101170000080082C02D14FF006091FE02046E3173B
:1011800004EB5373DB1021464FEAE47C04EB5C7CF8
:101190004FEAEC0CA4EBCC0CBCF1000F02D04FF0EA
:1011A000010C01E04FF0000C6344224604EBD27CBA
:1011B0004FEA6C0C03FB0CF303F0FF09AAF12000CB
:1011C000C6B200255EE0082C07D106EB4600304988
:1011D00001EB400010F805B01DE00C2C07D106EB28
:1011E00046002C4901EB800010F805B013E0102CEC
:1011F00005D1294800EB061010F805B00BE0182CBB
:1012000007D106EBC600254901EB800010F805B0B8
:1012100001E0BDE8FE8F002002901CE00BF0010011
:1012200028B1414638460C9AFFF7B6FE09E00C9803
:1012300008B9012000E00020024641463846FFF789
:10124000ABFE4FEA6B0B08F1010000F0FF080298BB
:10125000401CC0B2029002980828DFDB781CC7B29D
:10126000082C0BD004EBD4714A100199791A8A42E8
:1012700004D1019F00980830C0B20090DDF80080D2
:10128000681CC5B24D459EDBFFF710FF00BFC0E7ED
:101290000C23000834250008A8290008982F00080E
:1012A0002DE9FC4F0746884616461C46BB46CDF83E
:1012B00004802046E21704EB5272D2102146E31755
:1012C00004EB5373DB10A4EBC3030BB1012300E069
:1012D00000231A44624392B20092002555E0102C7C
:1012E00005D12C4800EB461010F805A01BE0182C87
:1012F00007D106EBC600284901EBC00010F805A095
:1013000011E0202C05D1254800EBC61010F805A0EF
:1013100009E0402C05D1224800EB462010F805A03A
:1013200001E0BDE8FC8F4FF000091CE00AF001006D
:1013300028B1414638460B9AFFF72EFE09E00B987C
:1013400008B9012000E00020024641463846FFF778
:1013500023FE4FEA6A0A08F1010000F0FF0809F1D4
:10136000010000F0FF09B9F1080FDFDB781CC7B2FC
:10137000A7EB0B00A04204D15F4601980830C0B231
:101380000190DDF80480681C85B200988542A6DBD8
:1013900000BFC6E7F43C0008544000089C40000829
:1013A0001C4100082DE9FF4F83B0064691461F46B9
:1013B000DDE9104A4FF0000B082C01D14FF0020B71
:1013C000002532E0781B401EC1B20A20FFF762FE02
:1013D000B9FBF0F00A21B0FBF1F201FB1208B8F101
:1013E000000F0FD104EBD4710BEB610101FB056120
:1013F000C8B223463022CDF800A002940499FFF72A
:10140000AFFE10E004EBD4710BEB610101FB056151
:10141000C8B208F13001CAB22346CDF800A0029448
:101420000499FFF79DFE681CC5B2BD42CADBFFF7F9
:101430003DFE07B0BDE8F08F70B505460C46FFF7DE
:10144000E7FD7820FFF766FEFFF70EFE1CB1402097
:10145000FFF760FE02E00020FFF75CFEFFF704FEEE
:101460002846FFF757FEFFF7FFFDFFF7EBFD70BDC6
:1014700008B5012010230022114600901046FFF706
:101480000FFF012010230246002100901846FFF7AD
:1014900007FF012010230222002100902020FFF7E7
:1014A000FFFE012010230322002100903020FFF7CF
:1014B000F7FE012010233A22002100904020FFF780
:1014C0004FFE08BD38B50446012C1FD110233E2223
:1014D000002100900846FFF743FE01201023202240
:1014E000194600900020FFF73BFE01201023202228
:1014F000114600900020FFF733FE01201023202228
:10150000302100900020FFF72BFE00BF00BF38BD48
:1015100008B5012010230622002100901846FFF78D
:10152000BFFE012010230722002100902020FFF79A
:10153000B7FE012010230822002100903020FFF781
:10154000AFFE012010233A22002100904020FFF737
:1015500007FE08BD10B50021054800F005FB00207E
:10156000044908800121024800F07DFA10BD000006
:10157000000800403800002010B50446214602480B
:1015800000F0F0FA10BD00000004004070470000B9
:1015900001460020034A506820F440400843506050
:1015A000704700000010024029B1064A5269024308
:1015B000044B5A6104E0034A52698243014B5A6169
:1015C000704700000010024029B1064AD269024368
:1015D000044BDA6104E0034AD2698243014BDA61C9
:1015E000704700000010024029B1064A9269024388
:1015F000044B9A6104E0034A92698243014B9A6169
:1016000070470000001002407047000070B5A4B0A1
:101610002B48008C08B12BA000E02BA004462848E2
:10162000C08B08B127A000E027A00546244890F809
:10163000220008B125A000E026A006462048007F31
:101640001F4991F822102B462246CDE90106009150
:10165000224904A800F00AFC04A800F021FB184865
:10166000008C40B1012010230022114600905A2026
:10167000FFF716FE07E0012010230246002100902C
:101680005A20FFF70DFE01201021CDE900100C4873
:1016900090F82220032320213020FFF783FE012031
:1016A00010232522202100904820FFF759FD0448EF
:1016B00090F8220010B90AA000F0F2FA24B070BD30
:1016C00054000020CAC70000B7F10000CEB4C2FA2F
:1016D00000000000D2D1C2FA000000001C43000844
:1016E000C0ACBBF8D2D1C2FA0D0A000070B500F050
:1016F000C3FC0446FFF776FA0E490884FFF78AFA1E
:101700000C49C8830C48C068201A962811D900F0EB
:101710003FFB0546FEF73EFE06490877087FFEF7C9
:1017200034FE0546FFF738F9024981F822000248E5
:10173000C46070BD540000201C05002000B589B0B5
:1017400001210220FFF740FF01210920FFF74CFF94
:1017500001212048FFF7D2F918208DF8230010202E
:10176000ADF8200003208DF8220008A91A48FFF7E1
:1017700039F901211948FFF7C1F90020ADF81A0025
:10178000ADF8160044F61F60ADF818004720ADF81C
:10179000140000208DF81C0005A9114800F0E6F99E
:1017A00001A800F0D5F96020ADF804000020ADF8E4
:1017B0000C000120ADF8060040F2DC50ADF80A0044
:1017C00001A9074800F078F90121054800F04BF91C
:1017D00009B000BD00023000000C014000081A00F2
:1017E000000400402DE9F041044600212046FEF7A8
:1017F00015FE00D200240D492046FEF719FE00D246
:101800000A4C0A492046FEF713FD80460849FEF7B8
:10181000DDFC07460749FEF781FC0646FEF7BAFDE8
:1018200085B22846FFF7A8FEBDE8F08100003443EA
:101830000000FA440000FA4310B50C480078022872
:1018400010D100200949087009480078401C084957
:10185000087008460078022804DDFFF785FB0120A8
:10186000034908700248007810BD000036000020CF
:101870000C00002010B500F001F810BD0CB50020E0
:10188000019000903348006840F48030314908608E
:1018900000BF3048006800F4003000900198401C00
:1018A0000190009818B90198B0F5A06FF1D12948BE
:1018B000006800F4003010B10120009001E0002029
:1018C00000900098012843D12348006840F01000A0
:1018D000214908600846006820F0030008600846B7
:1018E000006840F0020008601A48406819494860E2
:1018F0000846406848600846406840F48060486098
:101900000846406820F47C1048600846406840F46F
:10191000E81048600846006840F08070086000BF2A
:101920000C48006800F000700028F9D009484068B1
:1019300020F00300074948600846406840F0020074
:10194000486000BF0348406800F00C000828F9D147
:101950000CBD00000010024000200240042808D105
:101960004FF0E021096941F004014FF0E0221161DC
:1019700007E04FF0E021096921F004014FF0E02277
:10198000116170477047000010B50948006840F0C9
:1019900001000749086008464068064908400449B4
:1019A0004860FFF767FF4FF000600349086010BD13
:1019B000001002400000FFF808ED00E010B5012122
:1019C000880700F05FF838B1FFF732F900F05AFBF2
:1019D0000121880700F044F810BD7FB504460D468C
:1019E00001210846FFF7F0FD0020ADF80A00ADF830
:1019F0000600ADF80850ADF804408DF80C0001A9C0
:101A00004FF0804000F0B2F801221146900700F03C
:101A10004AF81C208DF8000001208DF803008DF895
:101A2000010002208DF802006846FFF765FA0121E7
:101A3000880700F018F87FBD10B50121064800F0B6
:101A400021F840B10121044800F00AF80348008859
:101A5000401C0249088010BD0008004038000020EA
:101A6000CA430282704721B1028842F0010202801B
:101A700004E002884FF6FE731A4002807047014668
:101A8000888C704730B50246002000230024158A58
:101A900005EA0103958905EA010413B10CB101209F
:101AA00000E0002030BD1AB183890B43838102E03E
:101AB00083898B438381704770B500240022002303
:101AC000058C4FF6FE7635400584028C8388048BA6
:101AD0004FF68F752C40B51E2C400D882C43751E7B
:101AE0002A400D892A434D882A43144DA8420BD021
:101AF000134DA84208D0134DA84205D0124DA8425C
:101B000002D0124DA84213D14FF6F7752A404D89E5
:101B10002A434FF6FB752A408D882A434FF6FF650E
:101B20002B404FF6FF552B408D892B43CD892B43FE
:101B300083800483CD888586028470BD002C01409B
:101B40000034014000400140004401400048014091
:101B50000021018041808180C1800181418181819A
:101B6000C181704781867047818470470022028856
:101B70001D4B98420ED01D4B98420BD0B0F1804FB8
:101B800008D01B4B984205D01A4B984202D01A4BF2
:101B9000984204D14FF68F731A404B881A43174B63
:101BA000984207D0164B984204D04FF6FF431A4094
:101BB000CB881A4302808B8883850B8803850A4B68
:101BC00098420BD0094B984208D00E4B984205D052
:101BD0000D4B984202D00D4B984201D10B7A0386EF
:101BE0000123838270470000002C01400034014033
:101BF0000004004000080040000C004000100040BD
:101C000000140040004001400044014000480140F1
:101C100010B540F22551124800F086F8F0B1104896
:101C200000F0ACF8C4B20F4800887F280ADA0D49EA
:101C30000888411C0B4A11800B490C540020128863
:101C4000885402E0002007490880012007490870F5
:101C500040F22551024800F04BF800BF10BD0000D3
:101C6000004400404A000020340500204C000020C1
:101C700010B5044600BF8021084800F048F800284D
:101C8000F9D02146054800F07EF800BF4021034806
:101C900000F03DF80028F9D010BD000000440040DD
:101CA00010B5044603E014F8010BFFF7E1FF2078BC
:101CB0000028F8D110BD000010B540F225510A48A7
:101CC00000F032F878B1084800F058F8C4B2312C6E
:101CD00003D10120054908703524322C03D100209E
:101CE00002490870352410BD004800400100002062
:101CF00010B50022002340F66A14A14200D100BFB3
:101D00000A1201249440A3B2DC43048010BD0246B1
:101D10000020B1F5007F00D100BF13880B400BB14C
:101D2000012000E00020704770B502460024002327
:101D30000025002040F66A16B14200D100BFC1F371
:101D4000421501F01F03012606FA03F3012D02D10B
:101D50009689334006E0022D02D1168A334001E015
:101D6000968A33400C12012606FA04F41688344091
:101D700013B10CB1012000E0002070BD014688883D
:101D8000C0F308007047C1F308028280704700006A
:101D90002DE9F84F4FF0000A0024A346A14631E098
:101DA000012024490860142000F0B6F900202249DF
:101DB000C1F8900100BF1F487C3800680028FAD0A5
:101DC000FFF7C8FB641C00BF1A487C380068012874
:101DD000FAD0FEF799FDFEF7EBFE82465046FEF77D
:101DE000D4FA0090FEF7EAFA07460022134BFEF7FA
:101DF0005DFA0546FEF7F5FA834649465846FEF772
:101E00008DF98146052CCBD14846FEF7D7FA074617
:101E100000220B4BFEF74AFA0546FEF7E2FA83462C
:101E200008495846FEF704FB01D2DFF818B05846BF
:101E3000BDE8F88F900121420000214200004D4092
:101E4000000014400000F04100BFFEE70FB4054B56
:101E500010B503A9044A029800F02CF810BC5DF8F4
:101E600014FB000055210008500000200FB4084B5F
:101E700010B504A902AA039800F01CF8044602A9B0
:101E8000002000F0F3F8204610BC5DF814FB0000C1
:101E90006D20000802E008C8121F08C1002AFAD10C
:101EA00070477047002001E001C1121F002AFBD1DA
:101EB000704700002DE9FF4F8BB09A460F4605464C
:101EC000002606E025280BD052460D9990476D1C40
:101ED000761C28780028F5D10FB03046BDE8F08F89
:101EE0000024A0460122604900E0044315F8013FA8
:101EF000203B02FA03F00842F7D128782E2817D1A8
:101F000015F8010F44F004042A280ED06FF02F02B8
:101F10002878A0F1300109290AD808EB880102EBE2
:101F2000410100EB01086D1CF2E757F8048B6D1CB2
:101F3000287869283ED006DC0028CDD063280BD055
:101F4000642804D136E0732810D075284BD052464F
:101F50000D999047761C85E017F8040B8DF800006A
:101F600000208DF80100E946012003E057F8049BAA
:101F70004FF0FF3061074FF0000401D40AE0641C09
:101F800044450DDA8442FADB19F804100029F6D131
:101F900006E0641C8442FCDB19F804100029F8D127
:101FA000264404E019F8010B52460D999047641E2F
:101FB000F8D257E001CF4FF00A0B002802DA404276
:101FC0002D2102E0210504D52B218DF824100121BB
:101FD00003E0E10705D02021F7E70DF12009089182
:101FE0000CE00021F9E701CF4FF00A0BF9E7594661
:101FF000FEF728FA01F1300209F8012D0028F6D188
:10200000ADEB090000F1200B600701D44FF001088F
:10201000D84502DDA8EB0B0000E00020804600243C
:1020200006E009A85246005D0D999047641C761C95
:1020300008988442F5DB04E0302052460D99904721
:10204000761CB8F10001A8F10108F5DC05E019F8EB
:10205000010B52460D999047761CBBF10001ABF184
:10206000010BF4DC6D1C34E7092801000A68531CDD
:102070000B60107070470000014800687047000056
:102080004000002002480068401C01490860704779
:102090004000002010B504466FF00400FFF75EFC1E
:1020A000E11704EB5171C1F3C701094A11701046E1
:1020B000007800EB4001C1EBC0104FF6FF7101EA60
:1020C000C0000449088000200349086010BD0000DA
:1020D0003C0000203E0000204000002001460D4A48
:1020E00012884A434FF0E0235A6100229A6101228C
:1020F0001A6100BF4FF0E022106900F001021AB12E
:1021000000F48032002AF5D000224FF0E0231A615B
:102110009A6170473E00002001460D4A12784A43FA
:102120004FF0E0235A6100229A6101221A6100BF38
:102130004FF0E022106900F001021AB100F4803281
:10214000002AF5D000224FF0E0231A619A6170470F
:102150003C00002070B504460D46E1B20548FFF78B
:1021600012FE00BF0348008800F080000028F9D06C
:10217000204670BD00380140FFF706FC4820FFF7FD
:1021800089FFFEF73BFAFEF789FEFFF7D7FA40F228
:10219000E7314720FFF721FC4EA0FFF757FE97E0FD
:1021A000FFF76AFF04464D480068201A642803D9E7
:1021B000FFF79CFA4948046049480578A5B14948A9
:1021C000007801280FD1012D0CD10220454908705B
:1021D0000120454908700020444908708870C87083
:1021E0003F49087000BF00BF414800783D49097869
:1021F000884215D0FEF7B8FE3A4800783C4908708E
:1022000038480078012802D0022806D102E0FFF702
:102210002FF902E0FFF77CF900BF00BFFEF746FF91
:1022200030480078012802D0022846D106E0FFF7A6
:10223000EDF9FEF737FBFEF76FFB3EE0FFF7FCFA28
:1022400006460027294800782A490978884205D19E
:102250002648C07828490978884208D001272348B1
:102260000078244908702148C07823490870234821
:10227000007838B122480078864203D117B9214846
:10228000007880B1FFF744F93046FFF71BF9FEF7FD
:102290001FFE0120194908701948067000201949CD
:1022A0000870FEF703FFFFF733F93046FFF70AF92E
:1022B000FEF70EFEFEF730FB00BF00BF12480068BD
:1022C000201A192803D9FEF7F1FE0F48046000BF59
:1022D00066E700005374617274200A001000002049
:1022E00036000020000000200C000020900000209C
:1022F0000E0000201A0000201B0000201800002003
:10230000190000201C000020140000200000000024
:1023100000000000002F000000000700070000146C
:102320007F147F1400242A7F2A120062640813237A
:1023300000364955225000000503000000001C2211
:102340004100000041221C000014083E081400084F
:10235000083E0808000000A06000000808080808FF
:10236000000060600000002010080402003E514997
:10237000453E0000427F4000004261514946002135
:1023800041454B31001814127F100027454545394F
:10239000003C4A49493000017109050300364949AA
:1023A000493600064949291E000036360000000063
:1023B00056360000000814224100001414141414AE
:1023C0000000412214080002015109060032495957
:1023D000513E007C1211127C007F49494936003E73
:1023E00041414122007F4141221C007F494949412E
:1023F000007F09090901003E4149497A007F080828
:10240000087F0000417F4100002040413F01007FE4
:1024100008142241007F40404040007F020C027FB0
:10242000007F0408107F003E4141413E007F0909C2
:102430000906003E4151215E007F091929460046E8
:10244000494949310001017F0101003F4040403FBF
:10245000001F2040201F003F4038403F0063140809
:1024600014630007087008070061514945430000E4
:102470007F41410000552A552A55000041417F0007
:1024800000040201020400404040404000000102FC
:102490000400002054545478007F484444380038E5
:1024A0004444442000384444487F0038545454186D
:1024B00000087E0901020018A4A4A47C007F08047F
:1024C00004780000447D4000004080847D00007F4F
:1024D000102844000000417F4000007C041804786C
:1024E000007C0804047800384444443800FC242468
:1024F00024180018242418FC007C08040408004850
:102500005454542000043F444020003C4040207C70
:10251000001C2040201C003C4030403C004428105F
:102520002844001CA0A0A07C004464544C44141413
:10253000141414140000000000000000000000004B
:102540000000FC000000000002000000000C020C73
:10255000020000000000000090D0BCD0BC9000033E
:10256000000300001824FE448C000302070201004F
:102570001824D8B04C80000300010201C038E438B0
:10258000E000010202010202080600000000000053
:1025900000000000000000F8040200000001020436
:1025A000000204F800000004020100009060F860DE
:1025B00090000000010000002020FC20200000000E
:1025C00001000000000000000000080600000000FC
:1025D000202020202000000000000000000000005B
:1025E00000000002000000000080601C02000403E4
:1025F00000000000F8040404F800010202020100D7
:102600000008FC00000000020302000018844424BB
:10261000180003020202020008042424D800010268
:102620000202010040B088FC8000000000030200AC
:102630003C242424C400010202020100F824242CBA
:10264000C0000102020201000C04E41C04000000AE
:1026500003000000D8242424D80001020202010053
:1026600038444444F8000003020201000000100056
:102670000000000002000000000020000000000038
:102680000600000000205088040200000000010243
:1026900090909090900000000000000000020488DC
:1026A00050200002010000001804C424180000009B
:1026B00002000000F804E494F800010202020200A3
:1026C00000E09CF0800002030000030204FC2424CC
:1026D000D800020302020100F80404040C00010205
:1026E0000202010004FC0404F800020302020100DB
:1026F00004FC24740C0002030202030004FC247492
:102700000C00020302000000F0080444CC40000169
:102710000202010004FC2020FC040203000003026A
:102720000404FC040400020203020200000404FC8E
:10273000040406040403000004FC24D00C04020377
:102740000200030204FC0400000002030202020370
:10275000FC3CC03CFC0003000300030004FC30C44C
:10276000FC04020302000300F8040404F800010260
:102770000202010004FC24241800020302000000ED
:10278000F8848404F80001020207050004FC2464B4
:102790009800020302000302182424448C00030260
:1027A000020201000C04FC040C0000020302000001
:1027B00004FC0000FC04000102020100047C80E033
:1027C0001C040000030000001CE03CE01C000003AF
:1027D00000030000049C609C04000203000302004C
:1027E000041CE01C04000002030200000C84641CB2
:1027F00004000203020203000000FE0202000000C7
:1028000007040400000E30C00000000000010200B8
:10281000000202FE0000000404070000000402049D
:102820000000000000000000000000000000080898
:102830000808080800000200000000000000000076
:102840000040A0A0C00000010202030204FC2020FE
:10285000C00000030202010000C02020600000014F
:102860000202020000C02024FC0000010202030258
:1028700000C0A0A0C0000001020202000020F82455
:1028800024040002030202000040A0A06020000710
:102890000A0A0A0404FC2020C0000203020003020A
:1028A0000020E4000000000203020000000020E419
:1028B000000008080807000004FC80E02020020354
:1028C000020003020404FC000000020203020200F2
:1028D000E020E020C00003000300030020E02020EF
:1028E000C00002030200030200C02020C00000015B
:1028F0000202010020E02020C000080F0A020100AF
:1029000000C02020E0000001020A0F0820E0402063
:1029100020000203020000000060A0A020000002CE
:10292000020203000020F820000000000102020063
:1029300020E00020E00000010202030220E02080ED
:1029400060200000030100006080E0806000000360
:1029500000030000206080602000020300030200EA
:1029600020E0208060200808070100000020A0600F
:102970002000000203020200000020DE020000002E
:1029800000070400000000FF00000000000F00002E
:102990000002DE2000000004070000000201020423
:1029A0000402000000000000000000000000000021
:1029B0000000000000000000000000F8000000001F
:1029C000000000333000000000100C06100C060060
:1029D000000000000000000040C07840C0784000C7
:1029E000043F04043F040400007088FC0830000029
:1029F000001820FF211E0000F008F000E018000081
:102A000000211C031E211E0000F008887000000039
:102A10001E2123241927211010160E00000000008B
:102A20000000000000000000000000E018040200A8
:102A3000000000071820400000020418E000000019
:102A40000040201807000000404080F08040400017
:102A50000202010F01020200000000F0000000006D
:102A60000101011F01010100000000000000000041
:102A700080B07000000000000000000000000000B6
:102A8000000101010101010100000000000000003F
:102A900000303000000000000000000080601804DA
:102AA000006018060100000000E010080810E000B7
:102AB000000F102020100F00001010F80000000080
:102AC0000020203F202000000070080808887000C7
:102AD0000030282422213000003008888848300047
:102AE0000018202020110E000000C02010F8000067
:102AF00000070424243F240000F808888808080000
:102B00000019212020110E0000E010888818000014
:102B1000000F112020110E0000380808C8380800E6
:102B20000000003F00000000007088080888700066
:102B3000001C222121221C0000E010080810E000E7
:102B40000000312222110F00000000C0C000000070
:102B50000000003030000000000000800000000095
:102B6000000080600000000000008040201008008D
:102B70000001020408102000404040404040400056
:102B80000404040404040400000810204080000031
:102B90000020100804020100007048080808F00036
:102BA0000000003036010000C030C828E810E00006
:102BB0000718272423140B000000C038E000000091
:102BC000203C23020227382008F8888888700000FB
:102BD000203F202020110E00C030080808083800CF
:102BE000071820202010080008F808080810E00046
:102BF000203F202020100F0008F88888E8081000E7
:102C0000203F20202320180008F88888E8081000BA
:102C1000203F200003000000C030080808380000F2
:102C200007182020221E020008F808000008F808F3
:102C3000203F210101213F20000808F8080800007A
:102C40000020203F2020000000000808F8080800AD
:102C5000C08080807F00000008F888C02818080025
:102C6000203F20012638200008F80800000000005E
:102C7000203F20202020300008F8F800F8F8080055
:102C8000203F003F003F200008F830C00008F8084F
:102C9000203F200007183F00E01008080810E0005F
:102CA0000F10202020100F0008F808080808F00076
:102CB000203F210101010000E01008080810E00099
:102CC0000F18242438504F0008F88888888870002E
:102CD000203F2000030C30200070880808083800CE
:102CE0000038202121221C00180808F808081800C4
:102CF0000000203F2000000008F808000008F80845
:102D0000001F202020201F000878880000C83808F5
:102D1000000007380E010000F80800F80008F8006D
:102D2000033C0700073C0300081868808068180807
:102D300020302C03032C30200838C800C838080085
:102D40000000203F2000000010080808C8380800D4
:102D50002038262120201800000000FE0202020078
:102D60000000007F40404000000C30C00000000028
:102D7000000000010638C00000020202FE00000050
:102D8000004040407F0000000000040202020400F6
:102D90000000000000000000000000000000000033
:102DA000808080808080808000020204000000001B
:102DB0000000000000000000000080808080000013
:102DC0000019242222223F2008F800808000000001
:102DD000003F112020110E000000008080800000C4
:102DE000000E112020201100000000808088F800D3
:102DF000000E112020103F20000080808080000005
:102E0000001F222222221300008080F08888881868
:102E10000020203F20200000000080808080800073
:102E2000006B94949493600008F800808080000008
:102E3000203F210000203F200080989800000000E3
:102E40000020203F20200000000000809898000013
:102E500000C08080807F000008F800008080800033
:102E6000203F24022D302000000808F80000000058
:102E70000020203F20200000808080808080800013
:102E8000203F20003F20003F8080008080800000A5
:102E9000203F210000203F20000080808080000033
:102EA000001F202020201F00808000808000000064
:102EB00080FFA12020110E00000000808080800093
:102EC000000E112020A0FF80808080008080800084
:102ED00020203F21200001000000808080808000B1
:102EE0000033242424241900008080E08080000026
:102EF0000000001F20200000808000000080800073
:102F0000001F202020103F208080800000808080D3
:102F100000010E3008060100808000800080808063
:102F20000F300C030C300F00008080008080800088
:102F30000020312E0E3120008080800000808080B3
:102F400080818E7018060100008080808080800063
:102F50000021302C2221300000000000807C020281
:102F600000000000003F404000000000FF000000A3
:102F700000000000FF0000000002027C8000000052
:102F80000040403F0000000000060101020204046E
:102F90000000000000000000000000000000000031
:102FA0000000000000000000000000000000000021
:102FB0000000000000000000000000000000000011
:102FC00000F0F0F0000000000000000000017F01B0
:102FD0000000000000000000001C1C1C000000009D
:102FE00000008060301C8C60301C0C000000000071
:102FF00000000000000000000000000000000000D1
:1030000000000000000000E00000000000E0000000
:103010000086E69F86868686E69F860000011F0161
:10302000010101011F010100000080C06020F820A3
:10303000E0C00000000003070C18FF70E1810000F1
:103040000000070F10107F100F0700008060206045
:1030500080000000E02000000F3020309F70DC373F
:103060001030C0000000100E0300071810180700F1
:103070000000C02020E0C0000000000080E01F38F9
:10308000E88703C43C040000070F1810100B070D5D
:103090001010080000808C4C380000000000000078
:1030A0000000000000000000000000000000000020
:1030B000000000000000000000000000000080E0B0
:1030C000300804000000000000FEFF0100000000C6
:1030D000000000000000030F18204000000408302A
:1030E000E0800000000000000000000001FFFE0082
:1030F00000000000004020180F0300000000000046
:10310000000000000000C0000000000000426666F1
:103110003C18FF183C6666420000000000000300F7
:10312000000000000000000000008000000000001F
:10313000001010101010FF101010101000000000F0
:10314000000003000000000000000000000000007C
:10315000000000000000000000000000000000006F
:1031600000808C4C380000000000000000000000CF
:1031700000000000000000000010101010101010DF
:10318000101010000000000000000000000000000F
:10319000000000000000000000000000000000002F
:1031A000000000000000000000001C1C1C000000CB
:1031B000000000000000000000000000E0380C00EB
:1031C0000000000080701C03000000000060380E4A
:1031D0000100000000000000000080C060202060AE
:1031E000C080000000FEFF010000000001FFFE00A3
:1031F0000001070E181010180E0701000000808053
:1032000080C0E000000000000000000000FFFF00A0
:103210000000000000001010101F1F101010000010
:103220000080402020202060C080000000030300B8
:10323000804020381F070000001C1A1918181818A1
:10324000181F00000080C020202060C08000000007
:10325000000303001010182FE780000000070F1074
:10326000101010180F070000000000000000C0E060
:10327000F000000000C0B088868180FFFF808000E1
:10328000000000000010101F1F1010000000E06080
:10329000606060606060000000003F10080808186F
:1032A000F0E0000000070B101010101C0F030000CE
:1032B000000080C040202020E0C0000000FCFF2172
:1032C0001008080818F0E0000001070C1810101092
:1032D000080F03000000C0E06060606060E0600014
:1032E000000003000000E0180700000000000000DC
:1032F000001F1F00000000000080C0602020202070
:1033000060C080000087EF2C1818303068CF830031
:1033100000070F0810101010180F07000000C0C0A1
:1033200020202020C0800000001F3F60404040203F
:1033300010FFFE0000000C1C101010080F0300000E
:10334000000000000000000000000000000000007D
:10335000000E0E0E0000000000000000001C1C1CEF
:10336000000000000000000000000000000000005D
:1033700000000000000C0C00000000000000000035
:10338000005838000000000000000000000000802D
:1033900040201000000010284482010000000000BE
:1033A00000000000000001020408100000000000FE
:1033B0000000000000000000008484848484848471
:1033C0008484840000000000000000000000000071
:1033D00000001020408000000000000000000000FD
:1033E00000000182442810000000100804020100BF
:1033F0000000000000C020201010101030E0C000BD
:103400000003030000F010080C0703000000000098
:103410001C1C1C0000000000000000C040602020B8
:103420002040C00000FCFF01F00E03C1FE03807FBE
:103430000001070E0811111011090402000000001C
:1034400080E0E000000000000000807C4340477FF7
:10345000F880000010181F1000000000131F1C103F
:1034600020E0E02020202060C080000000FFFF104E
:10347000101010182FE78000101F1F1010101010D0
:10348000180F0700000080C0402020202060E000CE
:1034900000FCFF0100000000000001000001070E19
:1034A000181010100804030020E0E0202020204025
:1034B000C080000000FFFF000000000001FFFE00D0
:1034C000101F1F10101018080E07010020E0E02048
:1034D000202020202060800000FFFF101010107CB2
:1034E00000000000101F1F10101010101018060010
:1034F00020E0E020202020206060800000FFFF10FE
:103500001010107C00000100101F1F1000000000B0
:1035100000000000000080C06020202040E000008B
:1035200000FCFF0100004040C0C140400001070E08
:10353000181010100F0F000020E0E0200000000025
:1035400020E0E02000FFFF101010101010FFFF001F
:10355000101F1F1000000000101F1F10000020206F
:1035600020E0E020202000000000000000FFFF001D
:103570000000000000001010101F1F1010100000AD
:1035800000000000202020E0E020202000000000BB
:10359000000000FFFF0000000060E0808080C07F2E
:1035A0003F00000020E0E020000020A0602020007C
:1035B00000FFFF30187CE3C000000000101F1F1048
:1035C000000001131F1C181020E0E0200000000084
:1035D0000000000000FFFF000000000000000000ED
:1035E000101F1F10101010101018060020E0E0E04F
:1035F00000000000E0E0E02000FF013FFEC0E01E10
:1036000001FFFF00101F1000031F0300101F1F10F9
:1036100020E0E0C0000000000020E02000FF0003E8
:10362000071C78E08000FF00101F10000000000061
:10363000030F1F00000080C060202060C0800000D9
:1036400000FEFF010000000000FFFE000001070E69
:10365000181010180C07010020E0E0202020202086
:1036600060C0800000FFFF2020202020301F0F00BE
:10367000101F1F100000000000000000000080C0AC
:1036800060202060C080000000FEFF0100000000FC
:1036900000FFFE000001070E1111133C7C672100A2
:1036A00020E0E0202020202060C0800000FFFF10EC
:1036B0001030F0D0080F0700101F1F10000000038B
:1036C0000F1C10100080C060202020204040E0002F
:1036D00000070F0C1818303060E08100001F0C0844
:1036E00010101010180F07008060202020E0E0204C
:1036F000202060800100000000FFFF0000000001AA
:1037000000000000101F1F100000000020E0E0205B
:10371000000000000020E02000FFFF00000000008B
:103720000000FF0000070F1810101010100807000D
:103730002060E0E02000000020E060200000077F23
:10374000F88000807C03000000000000071F1C07B9
:103750000000000020E0E02000E0E0200020E02069
:103760000007FFF8E01FFFFCE01F00000000031F40
:103770000300011F03000000002060E0A000002003
:10378000E0602000000000038F7CF8C6010000000C
:103790000010181E130001171F1810002060E0E031
:1037A0002000000020E06020000001073EF8E01843
:1037B0000700000000000010101F1F101000000084
:1037C00000806020202020A0E0E020000000000019
:1037D000C0F03E0F0300000000101C1F1710101057
:1037E000101806000000000000FC0404040404009B
:1037F0000000000000FF00000000000000000000CA
:10380000007F404040404000000010E00000000009
:103810000000000000000000031C608000000000A9
:1038200000000000000000030C7080000000040491
:10383000040404FC0000000000000000000000FF81
:1038400000000000000040404040407F00000000B9
:1038500000000010080C040C08100000000000001C
:103860000000000000000000000000000000000058
:103870000000000000000000000000000000000048
:103880000000000000000000000000008080808038
:103890008080808080808080000000040408080010
:1038A0000000000000000000000000000000000018
:1038B0000000000000000000000000000000000008
:1038C0000000000000000000000098D84464242498
:1038D000FCF80000000F1F18101010081F1F101810
:1038E0000020E0F000000000000000000000FFFFEA
:1038F000180804040CF8F00000001F0F1810101036
:10390000180F03000000000000000000000000008D
:1039100000E0F8180404043C3800000000030F0C19
:103920001010101008060000000000000000002029
:10393000E0F0000000E0F81C04040408FFFF0000B1
:1039400000030F18101010081F0F080000000000DF
:1039500000000000000000000000E0F8484444447B
:103960004C7870000000030F0C18101010080400B1
:103970000000000080C0602020E0C00000040404BB
:10398000FFFF040404040000000010101F1F1010AB
:103990001000000000000000000000000000000017
:1039A000000070F88C04048CF874040C007076CF5E
:1039B0008D8D8D89C87870000020E0F00000000037
:1039C000000000000000FFFF08040404FCF80000F1
:1039D00000101F1F100000101F1F1000000000002B
:1039E00000606000000000000000040404FCFC0013
:1039F0000000000000001010101F1F101010000029
:103A000000000000000000606000000000000000F6
:103A1000040404FCFC0000000000C0C08080C07FE3
:103A20003F0000000020E0F0000000000000000067
:103A30000000FFFF80C0F41C0404000000101F1FE2
:103A40001100031F1C1010000000202020E0F000D7
:103A5000000000000000000000FFFF000000000068
:103A600000001010101F1F101010000000000000B8
:103A7000000000000000000004FCFC0804FCFC083E
:103A800004FCFC00101F1F10001F1F10001F1F1040
:103A90000000000000000000000000000004FCFC2A
:103AA00008080404FCF8000000101F1F100000109C
:103AB0001F1F1000000000000000000000000000B8
:103AC00000E0F0180C04040C18F0E00000030F0CE8
:103AD000101010100C0F0300000000000000000088
:103AE000000000000004FCFC080404040CF8F000D2
:103AF0000080FFFF889010101C0F030000000000E2
:103B0000000000000000000000E0F81C04040408AD
:103B1000F8FC000000030F1810109088FFFF8000D1
:103B2000000000000000000000000000040404FC8D
:103B3000FC100804040C0C001010101F1F101010B3
:103B40000000000000000000000000000000000075
:103B500000003078CCC48484840C1C0000001E1843
:103B600010101011190F06000000000000C0000026
:103B70000000000000040404FFFF0404040000002F
:103B8000000000000F1F1010100C000000000000CB
:103B900000000000000000000004FCFE0000000423
:103BA000FCFE000000000F1F181010081F0F080077
:103BB00000000000000000000000000000040C3CB9
:103BC000FCC40000C43C0C0400000000010F1E0EE9
:103BD00001000000000000000000000000000000E4
:103BE000043CFCC400E47CFC84807C040000071FCF
:103BF000070000071F070000000000000000000091
:103C0000000000000004041C7CE4C0341C04040018
:103C10000010101C1601131F1C18100000000000DB
:103C2000000000000000000000040C3CFCC400C4C4
:103C30003C0404000000C080C1370E0100000000F9
:103C400000000000000000000000000000001C0454
:103C500004C4F47C1C0400000000101C1F17111089
:103C600010180E0000000000000000F80C04000016
:103C700000000000001028EF00000000000000001D
:103C80000000003F60400000000000000000FF0056
:103C900000000000000000000000FF000000000025
:103CA000000000000000FF00000000000000040C05
:103CB000F80000000000000000000000EF281000E5
:103CC00000000000000040603F0000000000000015
:103CD000001806020204081020203008000000002E
:103CE00000000000000000000000000000000000D4
:103CF000000000000000007F494949494949497FC7
:103D0000000000008141211D214181FF89898989AD
:103D10008981810000028282422212FA0622224216
:103D200042820000010100FC44444445444444FCF8
:103D30000000010004040484E43C2724242424E437
:103D40000404040004020100FF0909090949897FEC
:103D500000000000000000000000C03FC0000000A4
:103D600000000000804020100C03000000030C1035
:103D7000204080000000C038000000FF000040200C
:103D80001800000080814020100C0300030C10205C
:103D900040808000100C04C4040405F604040404EC
:103DA000C4140C008080424120100C030C102241EE
:103DB00040808000202020FF20201090111610103D
:103DC000D01000001030100F084840415E40704E87
:103DD00041404000202020FF202202FE0202625AC1
:103DE00046C000000818080744348E814628102871
:103DF000468180001090FF9010E2222A2AF22A26A3
:103E000022E000000601FF0001FF0909097F0949BE
:103E1000897F0000100C4424148445264484142413
:103E200044140C00040402FE45444444444445FE4A
:103E300002040400202020BEAAAAAAAAAAAAAABEF6
:103E400020202000008080AFAAAAAAFFAAAAAAAFB9
:103E5000808000000000E28282828282828282FE72
:103E60000000000000003F404040404040404040D3
:103E7000407800001060028C0024242FE42424E405
:103E80002F24240004047E0100FF110907190907EB
:103E900049917F0080808888888888FF8888888802
:103EA0008880800020201008040201FF010204081D
:103EB000102020001060028C0024242FE42424E42D
:103EC0002F24240004047E0100FF110907190907AB
:103ED00049917F00003E22E2223E00FE2222222261
:103EE00022E20200203F201F1111007F444444447D
:103EF00044474000040404F484D4A5A6A4D484F464
:103F00000404040000FE0202123A1613121A32428E
:103F1000827E000080828282FE8282828282FE8293
:103F200082828000008040300F0000000000FF000F
:103F300000000000000000FC444444454644444462
:103F4000447C00004020180700FC4444444444449E
:103F500044FC000000001011161010F01010141393
:103F6000100000008181414121110D030D112141FB
:103F70004181810000F80122202222A2FA2222227D
:103F800002FE000000FF0008040211201F00004094
:103F9000807F000000F808FF08F880904C57A45478
:103FA0004C8480002063211F113910101515FF1556
:103FB0001510100000FC0404FC0000FC041665044D
:103FC00084FC0000000F04040F00101312121252A0
:103FD00092423E0080809E9292929EE0809EB2D25B
:103FE000929E80000808F4949292F10001F292945B
:103FF00094F808001060020CC000E22C203F20283A
:10400000E600000004047C030000FF090909498957
:104010007F000000002022AAAAAAAABFAAAAAAAAD0
:104020002220000004043C2724242D3624A4A47F4D
:1040300024240400807000FF201004040404FC0405
:1040400004040400806018070830000040807F00EE
:1040500000000000000000C080808080808080FC24
:1040600084808080808080C0C0000000000000FF4D
:104070007F404040404040FF40404040404040FF83
:104080007F00000000000000000000000000007F32
:1040900070000000000000000000000000000000B0
:1040A0000000000000000000000000FCF80000001C
:1040B0000000000000000000000000000000000000
:1040C000FFFE020202020202020202FFFF020202DD
:1040D000020202020202FF030000000000000000D2
:1040E0001F1F040404040404040404FFFF04040464
:1040F0000404040404041F00000000000000000089
:1041000000000000000000000000007F3F000000F1
:10411000000000000000000000000000000000009F
:10412000000000000000000000000000000000008F
:10413000000000000000000000F8F8F0F07020001F
:10414000000000000000000000000000000000006F
:10415000000000000000000000000000000000005F
:1041600000000000800000000000000000000000CF
:10417000000000000000000000FFFFFFFF00000043
:10418000000000000000000000000000000000002F
:10419000808000000000000000000000000000001F
:1041A0000000000000FFFFFE0606060606060606E3
:1041B000060606060606060606FFFFFFFF060606BB
:1041C000060606060606060606060606060606FF96
:1041D000FFFFFF07020000000000000000000000D9
:1041E0000000000000FFFFFF0000000000000000D2
:1041F000000000000000000000FFFFFFFF000000C3
:10420000000000000000000000000000000000FFAF
:10421000FFFFFF00000000000000000000000000A1
:104220000000000000FFFFFF1818181818181818D1
:10423000181818181818181818FFFFFFFF18181862
:10424000181818181818181818181818181818FF07
:10425000FFFFFF0000000000000000000000000061
:10426000000000000201010000000000000000004A
:10427000000000000000000000FFFFFFFF00000042
:10428000000000000000000000000000000000012D
:10429000010000000000000000000000000000001D
:1042A000000000000000000000000000000000000E
:1042B000000000000000000000FFFFFFFF00000002
:1042C00000000000000000000000000000000000EE
:1042D00000000000000000000000000000000000DE
:1042E00000000000000000000000000000000000CE
:1042F0000000000000000000001F1F0F0F00000062
:1043000000000000000000000000000000000000AD
:1043100000000000000000000000000020CAC7B735
:10432000F1D3D0C8CB3A2025730D0A20CAC7B7F104
:10433000D7C5BBF03A202573200D0A20C0ACBBF8CE
:10434000CDB0CAA3D3E0C8DDC1BF3A2025640D0AB1
:104350002020BEE0C0EBA3BA256420434D0D0A2007
:10436000C0ACBBF8CDB0D7B4CCAC3A2025730D0AA5
:1043700000000000944300080000002054000000EA
:10438000941E0008E843000854000020640D00005B
:10439000A41E000801000000010000000000000051
:1043A000010000000000000000000000000000000C
:1043B00000000000000000000000000000000000FD
:1043C00000000000000000000000000000000000ED
:1043D00000000000000000000000000000000000DD
:0843E0000000000000000000D5
:04000005080000ED02
:00000001FF
